:100000000C9434000C9446000C9446000C9446006A
:100010000C9446000C9446000C9446000C94460048
:100020000C9446000C9446000C9446000C94460038
:100030000C9446000C946A000C9446000C94460004
:100040000C9446000C9446000C9446000C94460018
:100050000C9446000C9446000C9446000C94460008
:100060000C9446000C94460011241FBECFEFD8E03C
:10007000DEBFCDBF21E0A0E0B1E001C01D92A23003
:10008000B207E1F70E9448000C9481000C94000034
:10009000539A0E944D005B9AFECFE0E8F0E0808129
:1000A00080628083AFE6B0E08C9182608C93808127
:1000B00083608083E1E8F0E080818861808383E26F
:1000C00094EF909389008093880078948081846075
:1000D000808308951F920F920FB60F9211248F9371
:1000E0009F938091000190910101019690930101ED
:1000F000809300019F918F910F900FBE0F901F90E2
:060100001895F894FFCFF2
:00000001FF
