:100000000C9434000C943E000C943E000C943E0082
:100010000C943E000C943E000C943E000C943E0068
:100020000C943E000C943E000C943E000C943E0058
:100030000C943E000C943E000C943E000C943E0048
:100040000C943E000C943E000C943E000C943E0038
:100050000C943E000C943E000C943E000C943E0028
:100060000C943E000C943E0011241FBECFEFD8E04C
:10007000DEBFCDBF0E9468000C9473000C9400009A
:10008000EAE7F0E0808187608083ACE7B0E08C91A4
:1000900080648C9380818068808380818064808389
:1000A00087B187B90895ECE7F0E09081907F908365
:1000B0009081892B8083EAE7F0E0808180648083EF
:1000C000808186FDFDCF8091780090917900089520
:1000D0000E94400080E00E945300892B11F02C9A6E
:0A00E000F9CF2C98F7CFF894FFCF6A
:00000001FF
