S00F00007365676D656E742E7372656322
S11300000C9434000C943E000C943E000C943E007E
S11300100C943E000C943E000C943E000C943E0064
S11300200C943E000C943E000C943E000C943E0054
S11300300C943E000C943E000C943E000C943E0044
S11300400C943E000C943E000C943E000C943E0034
S11300500C943E000C943E000C943E000C943E0024
S11300600C943E000C943E0011241FBECFEFD8E048
S1130070DEBFCDBF0E9440000C9455000C940000DC
S11300800E9445000E944D00FDCF569A579A529AFD
S1130090519A509A559A549A08955E9A5F9A5C9A26
S11100A0589A599A5D985A980895F894FFCF8B
S9030000FC
