:100000000C9434000C9451000C9451000C94510049
:100010000C9451000C9451000C9451000C9451001C
:100020000C9451000C9451000C9451000C9451000C
:100030000C9451000C9451000C9451000C945100FC
:100040000C9451000C9451000C9468000C945100D5
:100050000C9451000C9451000C9451000C945100DC
:100060000C9451000C94510011241FBECFEFD8E026
:10007000DEBFCDBF11E0A0E0B1E0ECEFF0E002C0E8
:1000800005900D92A030B107D9F721E0A0E0B1E0D2
:1000900001C01D92A030B207E1F70E945F000C94EE
:1000A0007C000C9400001092C50087E68093C40089
:1000B00088E18093C1008EE08093C2000895789417
:1000C0000E945300E1ECF0E0808180698083FFCFE3
:1000D0001F920F920FB60F9211248F93EF93FF93FD
:1000E000E6ECF0E080818083FF91EF918F910F909B
:0C00F0000FBE0F901F901895F894FFCFE2
:00000001FF
