S018000050726F6965637453696E6372657469632E7372656392
S11300000C943E000C945B000C945B000C945B001D
S11300100C945B000C945B000C945B000C945B00F0
S11300200C945B000C945B000C945B000C94F30147
S11300300C945B000C945B000C945B000C945B00D0
S11300400C945B000C945B000C9440020C945B00D9
S11300500C945B000C945B000C945B000C945B00B0
S11300600C945B000C945B003101340137013A01BC
S11300703D0140014301460149014C0111241FBEC9
S1130080CFEFD8E0DEBFCDBF11E0A0E0B1E0E2E306
S1130090FEE002C005900D92AA30B107D9F721E025
S11300A0AAE0B1E001C01D92A832B207E1F70E94B4
S11300B0C9010C9417070C940000EAE7F0E0808172
S11300C087608083ACE7B0E08C9180648C938081FE
S11300D0806880838081806480830895ECE7F0E009
S11300E09081907F90839081892B8083EAE7F0E070
S11300F0808180648083808186FDFDCF809178003B
S11301009091790008950E945D0080E00E946E0045
S11301109093270180932601BC01990F880B990BBA
S11301200E94170320E030E040EA50E40E94CC0330
S113013020E030E040E85AE30E94CC0360930E01D3
S113014070930F01809310019093110120E030E02F
S113015040E05FE30E946D0220E030E048EC52E4AE
S11301600E94CC0360930A0170930B0180930C01ED
S113017090930D010895CF92DF92EF92FF920E9427
S113018083006B017C0160932201709323018093AF
S113019024019093250120E030E04CE052E40E94D9
S11301A0C703181614F42B9A0BC020E030E04CE07F
S11301B052E4C701B6010E94DA0218160CF02B981B
S11301C0FF90EF90DF90CF9008956091220170919D
S11301D0230180912401909125010E94DF027F93E5
S11301E06F9380E091E09F938F9388E191E09F93D8
S11301F08F930E943F046AE088E191E00E94240208
S11302002FEF88E09DE3215080409040E1F700C04B
S113021000000F900F900F900F900F900F90089583
S113022024982C9A08951C9B49C0809114019091A4
S113023015018F3F91050CF04DC001969093150167
S1130240809314018F3F910509F044C0E09112019D
S1130250F0911301EA30F10538F5EC5CFF4F0C9492
S113026039040E946B0120C00E9473011DC00E94CA
S11302707B011AC00E94830117C00E948B0114C025
S11302800E94930111C00E949B010EC00E94A30111
S11302900BC00E94AB0108C00E94B3018FEF9FEF17
S11302A09093130180931201809112019091130194
S11302B00196909313018093120108958091140183
S11302C090911501181619062CF4019790931501B5
S11302D08093140108955E9A5F9A5A9A299A289AEB
S11302E05D9A5C9808955F9A5A9A5E98299828981E
S11302F05D985C9808955E9A5F9A5C9A289A299A08
S11303005D985A9808955E9A5F9A5A9A299A5C9AC7
S113031028985D9808955D9A5C9A5F9A5A9A5E98B7
S11303202998289808955E9A5D9A5C9A5A9A299A0F
S11303305F98289808955E9A5D9A5C9A5A9A299AC9
S1130340289A5F9808955E9A5F9A5A9A29982898ED
S11303505D985C9808955E9A5F9A5D9A5C9A5A9A41
S1130360299A289A08955E9A5F9A5D9A5C9A5A9A95
S1130370299A28980895569A579A529A219A209A17
S1130380559A549A539A259A239A249A87B187B9ED
S113039008950E9414020E94BB010E94D7010E948A
S11303A0100178940E9413010E94BB00FBCFF894C3
S11303B010928000E1E8F0E0108210928500109223
S11303C0840088E09DE39093890080938800808175
S11303D088608083808185608083EFE6F0E080819F
S11303E08260808308951F920F920FB60F9211249A
S11303F08F939F938091160190911701892B31F06F
S11304005B9A109217011092160107C05B9881E065
S113041090E090931701809316019F918F910F9014
S11304200FBE0F901F9018951092C50087E6809319
S1130430C400E1ECF0E088E180838EE08093C200A8
S11304408081806980830895CF93DF93AC0120E09D
S1130450620FE0ECF0E0A6ECB0E009C0908195FFFB
S1130460FDCFEA01C20FD11D88818C932F5F26171F
S113047021F0908195FDF5CFF1CFDF91CF910895D3
S11304801F920F920FB60F9211242F933F934F9305
S11304905F936F937F938F939F93AF93BF93EF93E8
S11304A0FF938091C600813411F42D9A03C08335E3
S11304B009F42D980E94E500FF91EF91BF91AF914F
S11304C09F918F917F916F915F914F913F912F9168
S11304D00F900FBE0F901F9018955058BB27AA2756
S11304E00E9485020C948D030E947F0338F00E94C1
S11304F0860320F039F49F3F19F426F40C947C030E
S11305000EF4E095E7FB0C947603E92F0E949E031A
S113051058F3BA17620773078407950720F079F434
S1130520A6F50C94C0030EF4E0950B2EBA2FA02D63
S11305300B01B90190010C01CA01A0011124FF278C
S1130540591B99F0593F50F4503E68F11A16F04087
S1130550A22F232F342F4427585FF3CF4695379586
S11305602795A795F0405395C9F77EF41F16BA0B4B
S1130570620B730B840BBAF09150A1F0FF0FBB1FF9
S1130580661F771F881FC2F70EC0BA0F621F731F42
S1130590841F48F4879577956795B795F7959E3F9F
S11305A008F0B0CF9395880F08F09927EE0F979530
S11305B0879508950E94520308F481E008950E94EB
S11305C0E6026894B1110C94C10308950E94A60335
S11305D088F09F5798F0B92F9927B751B0F0E1F000
S11305E0660F771F881F991F1AF0BA95C9F714C0B0
S11305F0B13091F00E94C003B1E008950C94C0039F
S1130600672F782F8827B85F39F0B93FCCF38695E8
S113061077956795B395D9F73EF490958095709545
S113062061957F4F8F4F9F4F0895E89409C097FBC2
S11306303EF490958095709561957F4F8F4F9F4FB5
S11306409923A9F0F92F96E9BB279395F6958795F9
S113065077956795B795F111F8CFFAF4BB0F11F4BC
S113066060FF1BC06F5F7F4F8F4F9F4F16C0882363
S113067011F096E911C0772321F09EE8872F762F99
S113068005C0662371F096E8862F70E060E02AF0DA
S11306909A95660F771F881FDAF7880F96958795C6
S11306A097F90895990F0008550FAA0BE0E8FEEF9B
S11306B016161706E807F907C0F012161306E40722
S11306C0F50798F0621B730B840B950B39F40A261B
S11306D061F0232B242B252B21F408950A2609F4F9
S11306E0A140A6958FEF811D811D089597F99F67FD
S11306F080E870E060E008959FEF80EC08950024A6
S11307000A941616170618060906089500240A9472
S113071012161306140605060895092E0394000CF8
S113072011F4882352F0BB0F40F4BF2B11F460FF87
S113073004C06F5F7F4F8F4F9F4F089557FD9058B0
S1130740440F551F59F05F3F71F04795880F97FB91
S1130750991F61F09F3F79F087950895121613064B
S11307601406551FF2CF4695F1DF08C0161617067A
S11307701806991FF1CF86957105610508940895AF
S1130780E894BB2766277727CB0197F908950E9441
S1130790520308F48FEF08950E94DF030C948D0335
S11307A00E947F0338F00E94860320F0952311F005
S11307B00C9476030C947C0311240C94C1030E94C2
S11307C09E0370F3959FC1F3950F50E0551F629FF0
S11307D0F001729FBB27F00DB11D639FAA27F00D96
S11307E0B11DAA1F649F6627B00DA11D661F829FBD
S11307F02227B00DA11D621F739FB00DA11D621FA2
S1130800839FA00D611D221F749F3327A00D611DBE
S1130810231F849F600D211D822F762F6A2F1124A0
S11308209F5750409AF0F1F088234AF0EE0FFF1FD3
S1130830BB1F661F771F881F91505040A9F79E3F2A
S1130840510580F00C9476030C94C1035F3FE4F3EC
S1130850983ED4F3869577956795B795F795E79580
S11308609F5FC1F7FE2B880F911D9695879597F989
S11308700895EE0FFF1F0590F491E02D0994AEE06A
S1130880B0E0E5E4F4E00C94EE060D891E8986E000
S11308908C831A8309838FEF9FE79E838D83AE0138
S11308A0475E5F4F6F89788DCE0101960E94620486
S11308B02F813885F801E20FF31F10822E96E4E0B1
S11308C00C940A07ACE0B0E0E8E6F4E00C94E0062F
S11308D07C016B018A01FC0117821682838181FFEE
S11308E0BDC1CE0101964C01F7019381F60193FD40
S11308F0859193FF81916F01882309F4ABC18532FF
S113090039F493FD859193FF81916F01853229F428
S1130910B70190E00E944A06E7CF512C312C20E029
S11309202032A0F48B3269F030F4803259F08332F3
S113093069F420612CC08D3239F0803339F42160A0
S113094026C02260246023C0286021C027FD27C060
S113095030ED380F3A3078F426FF06C0FAE05F9E97
S1130960300D1124532E13C08AE0389E300D11240B
S1130970332E20620CC08E3221F426FD6BC120641C
S113098006C08C3611F4206802C0883641F4F601A2
S113099093FD859193FF81916F018111C1CF982FB0
S11309A09F7D9554933028F40C5F1F4FFFE3F98328
S11309B00DC0833631F0833771F0833509F05BC0A5
S11309C022C0F801808189830E5F1F4F4424439421
S11309D0512C540115C03801F2E06F0E711CF8015E
S11309E0A080B18026FF03C0652D70E002C06FEFC8
S11309F07FEFC5012C870E943F062C0183012C85C3
S1130A002F77222E17C03801F2E06F0E711CF80107
S1130A10A080B18026FF03C0652D70E002C06FEF97
S1130A207FEFC5012C870E9434062C012C85206899
S1130A30222E830123FC1BC0832D90E04816590607
S1130A40B0F4B70180E290E00E944A063A94F4CFF1
S1130A50F50127FC859127FE81915F01B70190E0A4
S1130A600E944A0631103A94F1E04F1A5108411499
S1130A70510471F7E5C0843611F0893639F5F8016F
S1130A8027FF07C060817181828193810C5F1F4FB2
S1130A9008C060817181072E000C880B990B0E5FD2
S1130AA01F4F2F76722E97FF09C0909580957095F1
S1130AB061957F4F8F4F9F4F2068722E2AE030E060
S1130AC0A4010E948206A82EA81844C0853729F4E0
S1130AD02F7EB22E2AE030E025C0F22FF97FBF2E00
S1130AE08F36C1F018F4883579F0B4C0803719F026
S1130AF0883721F0AFC02F2F2061B22EB4FE0DC075
S1130B008B2D8460B82E09C024FF0AC09F2F9660E5
S1130B10B92E06C028E030E005C020E130E002C074
S1130B2020E132E0F801B7FE07C060817181828163
S1130B3093810C5F1F4F06C06081718180E090E05B
S1130B400E5F1F4FA4010E948206A82EA818FB2D39
S1130B50FF777F2E76FE0BC0372D3E7FA51450F411
S1130B6074FE0AC072FC08C0372D3E7E05C0BA2C44
S1130B70372D03C0BA2C01C0B52C34FF0DC0FE01C3
S1130B80EA0DF11D8081803311F4397E09C032FFF2
S1130B9006C0B394B39404C0832F867809F0B39449
S1130BA033FD13C030FF06C05A2CB31418F4530C91
S1130BB05B18B32CB31468F4B70180E290E03C876F
S1130BC00E944A06B3943C85F5CFB31410F43B1845
S1130BD001C0312C34FF12C0B70180E390E03C87A0
S1130BE00E944A063C8532FF17C031FD03C088E7E6
S1130BF090E002C088E590E0B7010CC0832F8678AE
S1130C0059F031FF02C08BE201C080E237FD8DE272
S1130C10B70190E00E944A06A51438F4B70180E3B6
S1130C2090E00E944A065A94F7CFAA94F401EA0D80
S1130C30F11D8081B70190E00E944A06A110F5CF12
S1130C40332009F451CEB70180E290E00E944A06B5
S1130C503A94F6CFF7018681978102C08FEF9FEF18
S1130C602C96E2E10C94FC06FC0105906150704066
S1130C700110D8F7809590958E0F9F1F0895FC0161
S1130C806150704001900110D8F7809590958E0FB7
S1130C909F1F08950F931F93CF93DF93FB0123812D
S1130CA021FD03C08FEF9FEF28C022FF16C04681AD
S1130CB05781248135814217530744F4A081B181BF
S1130CC09D012F5F3F4F318320838C932681378191
S1130CD02F5F3F4F3783268310C0EB01092F182F56
S1130CE00084F185E02D0995892BE1F68E819F81A1
S1130CF001969F838E83812F902FDF91CF911F9137
S1130D000F910895FA01AA27283051F1203181F179
S1130D10E8946F936E7F6E5F7F4F8F4F9F4FAF4FFF
S1130D20B1E03ED0B4E03CD0670F781F891F9A1F12
S1130D30A11D680F791F8A1F911DA11D6A0F711DC6
S1130D40811D911DA11D20D009F468943F912AE0D2
S1130D50269F11243019305D3193DEF6CF010895BA
S1130D60462F4770405D4193B3E00FD0C9F7F6CFEB
S1130D70462F4F70405D4A3318F0495D31FD4052B3
S1130D80419302D0A9F7EACFB4E0A6959795879549
S1130D9077956795BA95C9F7009761057105089528
S1130DA09B01AC010A2E06945795479537952795D4
S1130DB0BA95C9F7620F731F841F951FA01D08956C
S1130DC02F923F924F925F926F927F928F929F9257
S1130DD0AF92BF92CF92DF92EF92FF920F931F9345
S1130DE0CF93DF93CDB7DEB7CA1BDB0B0FB6F894F6
S1130DF0DEBF0FBECDBF09942A88398848885F8436
S1130E006E847D848C849B84AA84B984C884DF80A6
S1130E10EE80FD800C811B81AA81B981CE0FD11D8A
S1130E200FB6F894DEBF0FBECDBFED010895F89460
S1050E30FFCFEE
S10D0E3274656D702025640A000049
S9030000FC
