S0140000417072696E646572654C45442E73726563A1
S11300000C945A000C946C000C946C000C946C00CE
S11300100C946C000C946C000C946C000C946C00AC
S11300200C946C000C946C000C946C000C94920076
S11300300C946C000C946C000C946C000C946C008C
S11300400C946C000C946C000C946C000C946C007C
S11300500C946C000C946C000C946C000C946C006C
S11300600C946C000C946C000C946C000C946C005C
S11300700C946C000C946C000C946C000C946C004C
S11300800C946C000C946C000C946C000C946C003C
S11300900C946C000C946C000C946C000C946C002C
S11300A00C946C000C946C000C946C000C946C001C
S11300B00C946C0011241FBECFEFD8E0DEBFCDBF7F
S11300C021E0A0E0B1E001C01D92A230B207E1F747
S11300D00E9470000C94B3000C940000539A08958D
S11300E00E946E000E947500FFCFF8941092800069
S11300F0E1E8F0E01082109285001092840088E01C
S11301009DE3909389008093880080818860808338
S1130110808185608083EFE6F0E080818260808367
S1130120789408951F920F920FB60F9211248F9313
S11301309F938091000190910101892B31F05B9A8A
S1130140109201011092000107C05B9881E090E0D9
S113015090930101809300019F918F910F900FBEA6
S10D01600F901F901895F894FFCF3C
S9030000FC
