:100000000C9434000C9446000C9446000C9446006A
:100010000C9446000C9446000C9446000C94460048
:100020000C9446000C9446000C9446000C94460038
:100030000C9446000C9446000C9446000C94460028
:100040000C9463000C9446000C9446000C944600FB
:100050000C9446000C9446000C9446000C94460008
:100060000C9446000C94460011241FBECFEFD8E03C
:10007000DEBFCDBF21E0A0E0B1E001C01D92A930FC
:10008000B207E1F70E9454000C9436010C94000072
:100090008AB18FEF8AB908955A9A64EF71E080E0CF
:1000A00090E00C94D20008950E94FA000E94530040
:1000B0000E944800C0E0D0E00E944C002097E1F38D
:1000C0000E940000F9CF1F920F920FB60F921124D9
:1000D0002F933F938F939F93AF93BF938091010191
:1000E00090910201A0910301B091040130910001AF
:1000F00023E0230F2D3720F40196A11DB11D05C06B
:1001000026E8230F0296A11DB11D209300018093C4
:10011000010190930201A0930301B0930401809127
:10012000050190910601A0910701B0910801019687
:10013000A11DB11D8093050190930601A0930701B5
:10014000B0930801BF91AF919F918F913F912F91F3
:100150000F900FBE0F901F9018953FB7F8948091A5
:10016000050190910601A0910701B091080126B503
:10017000A89B05C02F3F19F00196A11DB11D3FBFDF
:10018000BA2FA92F982F8827820F911DA11DB11D6D
:10019000BC01CD0142E0660F771F881F991F4A9569
:1001A000D1F70895CF92DF92EF92FF92CF93DF9332
:1001B0006B017C010E94AD00EB01C114D104E1048C
:1001C000F10489F00E9435010E94AD006C1B7D0B8B
:1001D000683E734090F381E0C81AD108E108F10845
:1001E000C851DC4FEACFDF91CF91FF90EF90DF90C5
:1001F000CF900895789484B5826084BD84B5816081
:1002000084BD85B5826085BD85B5816085BDEEE61E
:10021000F0E0808181608083E1E8F0E010828081FD
:1002200082608083808181608083E0E8F0E080816B
:1002300081608083E1EBF0E0808184608083E0EB8B
:10024000F0E0808181608083EAE7F0E08081846073
:1002500080838081826080838081816080838081CF
:10026000806880831092C10008950895F894FFCFAC
:00000001FF
