S00B000050574D2E7372656325
S11300000C9434000C9446000C9446000C94460066
S11300100C9446000C9446000C9446000C94460044
S11300200C9446000C9446000C9446000C94460034
S11300300C9446000C9446000C9446000C94460024
S11300400C94E1000C9446000C9446000C94460079
S11300500C9446000C9446000C9446000C94460004
S11300600C9446000C94460011241FBECFEFD8E038
S1130070DEBFCDBF21E0A0E0B1E001C01D92A430FD
S1130080B207E1F70E9450000C9420010C94000088
S113009083E884BD81E080936E0084E085BD08958B
S11300A08FEF84B90E944800789422E0EFEFF0E0EB
S11300B03FEF01C017BC80910201909103018A3F78
S11300C09105C4F3AC014A5F51094A3F510508F553
S11300D0843F914061F0809100019091010101966B
S11300E0909301018093000185B1822785B98091A5
S11300F0000190910101BF010E94F80067BD809149
S1130100020190910301AC014A5F51094A3F510534
S1130110F8F28091020190910301845F9140813E45
S1130120910568F437BD85B1822785B980910201B4
S113013090910301845F9140813E910598F38091F1
S1130140020190910301AC01465D52404830514098
S113015008F58E3D934061F080910001909101017A
S11301600197909301018093000185B1822785B99D
S11301708091000190910101BF010E94F80067BDC8
S11301808091020190910301AC01465D52404830D8
S11301905140F8F280910201909103018E3D934009
S11301A00CF489CF109203011092020185B18227C9
S11301B085B980910201909103018E3D934094F79B
S11301C07ACF1F920F920FB60F9211248F939F93A1
S11301D08091020190910301019690930301809311
S11301E002019F918F910F900FBE0F901F90189551
S11301F097FB072E16F4009407D077FD09D00E94D0
S11302000C0107FC05D03EF4909581959F4F08950D
S1130210709561957F4F0895AA1BBB1B51E107C0E0
S1130220AA1FBB1FA617B70710F0A61BB70B881F82
S1130230991F5A95A9F780959095BC01CD01089511
S1070240F894FFCF5C
S9030000FC
